:020000040800F2
:100000000050002015080008710700087707000855
:100010007D0700088307000889070008000000002A
:100020000000000000000000000000008F07000832
:100030009B07000800000000A7070008B30700089E
:100040005D0800085D0800085D0800085D080008FC
:100050005D0800085D0800085D0800085D080008EC
:100060005D080008BF0700085D0800085D0800087B
:100070005D0800085D0800085D0800085D080008CC
:100080005D0800085D0800085D0800085D080008BC
:10009000CD0700085D0800085D0800085D0800083D
:1000A0005D0800085D0800085D0800085D0800089C
:1000B0005D0800085D0800085D0800085D0800088C
:1000C0005D0800085D0800085D080008E1070008F9
:1000D0005D0800085D0800085D080008F5070008D5
:1000E0005D0800085D0800085D08000800000000C9
:1000F0000000000000000000000000000000000000
:0C01000000000000000000005FF808F1A3
:10010C0010B5054C237833B9044B13B10448AFF345
:10011C0000800123237010BD7C0100200000000032
:10012C002487000808B5034B1BB103490348AFF300
:10013C00008008BD0000000080010020248700081A
:10014C0080B500AF00F086FB00F0AEF800F066F969
:10015C0000F004F900F038F907F016FE494B1B7853
:10016C00DBB2042B49D0042B00F38A80002B02D085
:10017C00022B09D084E003224349444803F054F88D
:10018C00404B01221A707CE03F4B9B785A2B03D1D9
:10019C003D4B1B78FF2B03D03A4B09221A7070E0B1
:1001AC00394B5A783A4B1A70394B1B7803F00F03C2
:1001BC00DBB25B00DAB2374B1A70354B1B78412B34
:1001CC000BD0334B1B78732B07D0314B1B78792B0F
:1001DC0003D02C4B09221A7053E02E4B1B789BB288
:1001EC001A462D49294803F01FF8264B1B78DBB221
:1001FC000133DAB2234B1A7043E0264B1B78062BE3
:10020C0018D94FF40071254800F0C8FE0346002BA6
:10021C000AD1204B1B789BB202339BB21A46204961
:10022C00204803F091FE0FE008221D491D4803F001
:10023C008BFE09E0174B1B789BB202339BB21A461C
:10024C001749184803F080FE124B1B7803330E4AF3
:10025C001344452211464522184608F055FA0D4B19
:10026C001B789BB205339BB219460D4807F04AFE2A
:10027C00044B1B78DBB20133DAB2024B1A7000E08C
:10028C0000BF6BE7980100209C010020180400209F
:10029C009A010020990100209F010020000C0140D0
:1002AC009D010020D803002080B594B000AF07F169
:1002BC00280328220021184608F026FA07F1140317
:1002CC0000221A605A609A60DA601A613B1D0022A3
:1002DC001A605A609A60DA600123BB624FF4803373
:1002EC00FB6200233B630123BB6302237B644FF45B
:1002FC008033BB644FF4E013FB6407F1280318460A
:10030C0002F03EFA0346002B01D000F059F90F23FE
:10031C007B610223BB610023FB614FF480633B6272
:10032C0000237B6207F114030221184602F0A8FC9B
:10033C000346002B01D000F043F910237B6000230F
:10034C003B613B1D184602F035FE0346002B01D0E5
:10035C0000F036F900BF5037BD4680BD80B500AF08
:10036C00174B184A1A60164B00225A60144B4FF464
:10037C0080629A60124B0022DA60114B02221A61E1
:10038C000F4B01225A610E4B00229A610C4B30220A
:10039C00DA610B4B80221A62094B00225A62084B1D
:1003AC0000229A62064B0A22DA62054802F0B8FE75
:1003BC000346002B01D000F003F900BF80BD00BF45
:1003CC00180400200030014080B500AF114B124AD8
:1003DC001A60104B4FF461325A600E4B00229A6037
:1003EC000C4B0022DA600B4B00221A61094B0822DD
:1003FC005A61084B00229A61064B0022DA610548CB
:10040C0003F055FD0346002B01D000F0D9F800BFD6
:10041C0080BD00BFD80300200048004080B588B0E4
:10042C0000AF07F1100300221A605A609A60DA607C
:10043C00374B9B69364A43F010039361344B9B69ED
:10044C0003F01003FB60FB68314B9B69304A43F0AF
:10045C00200393612E4B9B6903F02003BB60BB68A8
:10046C002B4B9B692A4A43F004039361284B9B69ED
:10047C0003F004037B607B68254B9B69244A43F0A3
:10048C0008039361224B9B6903F008033B603B68B4
:10049C0001224FF400511F4800F097FD00224FF449
:1004AC0040411C4800F091FD4FF460433B61012337
:1004BC007B610023BB610323FB6107F11003194629
:1004CC00144800F0E7FB08233B61134B7B610023CE
:1004DC00BB6107F110031946104800F0DBFB4FF429
:1004EC0000733B6100237B610123BB6107F11003A7
:1004FC0019460B4800F0CEFB00220021092000F029
:10050C00E2FA092000F0FBFA00BF2037BD4680BD9F
:10051C0000100240001001400000311000080140A2
:10052C00000C014080B483B000AF7860054B1B78A1
:10053C00DBB20133DAB2034B1A7000BF0C37BD4685
:10054C0080BC70479801002080B582B000AF786005
:10055C004FF40051034800F050FD00BF0837BD4672
:10056C0080BD00BF0010014080B582B000AF0346D3
:10057C00FB80FB88082B19D108210E4800F00EFDDA
:10058C000346002B09D10C4803F05CF90346042BFD
:10059C000CD00A4B00221A7008E0074803F052F9FD
:1005AC000346012B02D1044802F070FF00BF08374C
:1005BC00BD4680BD000801401804002098010020B1
:1005CC0080B400AF72B600BFFEE7000080B485B007
:1005DC0000AF154B9B69144A43F001039361124B16
:1005EC009B6903F00103BB60BB680F4BDB690E4AD0
:1005FC0043F08053D3610C4BDB6903F080537B6079
:10060C007B680A4B5B68FB60FB6823F0E063FB6074
:10061C00FB6843F08063FB60044AFB68536000BFD7
:10062C001437BD4680BC70470010024000000140EA
:10063C0080B588B000AF786007F1100300221A6013
:10064C005A609A60DA607B681B68194A93422BD116
:10065C00184B9B69174A43F480539361154B9B6964
:10066C0003F48053FB60FB68124B9B69114A43F007
:10067C00040393610F4B9B6903F00403BB60BB68DD
:10068C00B0233B6100237B610023BB6107F11003A6
:10069C001946094800F0FEFA00220021232000F040
:1006AC0012FA232000F02BFA00BF2037BD4680BD84
:1006BC0000300140001002400008014080B588B0B5
:1006CC0000AF786007F1100300221A605A609A603C
:1006DC00DA607B681B68204A934239D11F4BDB6977
:1006EC001E4A43F48023D3611C4BDB6903F4802343
:1006FC00FB60FB68194B9B69184A43F00803936134
:10070C00164B9B6903F00803BB60BB684FF4806316
:10071C003B6102237B610323FB6107F11003194644
:10072C000F4800F0B7FA4FF400633B6100237B6184
:10073C000023BB6107F110031946094800F0AAFA1F
:10074C0000220221272000F0BEF9272000F0D7F963
:10075C0000BF2037BD4680BD00480040001002405D
:10076C00000C014080B400AFFEE780B400AFFEE7A0
:10077C0080B400AFFEE780B400AFFEE780B400AFFA
:10078C00FEE780B400AF00BFBD4680BC704780B4AC
:10079C0000AF00BFBD4680BC704780B400AF00BF47
:1007AC00BD4680BC704780B500AF00F099F800BF23
:1007BC0080BD80B500AF082000F038FC00BF80BDC4
:1007CC0080B500AF024800F07AFD00BF80BD00BFCD
:1007DC000811002080B500AF024802F03BFF00BFBB
:1007EC0080BD00BF1804002080B500AF024803F0A4
:1007FC00EFFB00BF80BD00BFD803002080B400AF6A
:10080C0000BFBD4680BC7047002103E00B4B5B581A
:10081C00435004310A480B4B42189A42F6D30A4A09
:10082C0002E0002342F8043B084B9A42F9D3FFF74D
:10083C00E5FF07F045FFFFF783FC7047AC87000826
:10084C00000000207C0100207C010020F41300201B
:10085C00FEE7000080B500AF084B1B68074A43F069
:10086C0010031360032000F023F9002000F008F8B7
:10087C00FFF7ACFE0023184680BD00BF00200240ED
:10088C0080B582B000AF7860124B1A68124B1B789F
:10089C0019464FF47A73B3FBF1F3B2FBF3F318463A
:1008AC0000F03BF90346002B01D001230EE07B68DE
:1008BC000F2B0AD8002279684FF0FF3000F003F9B3
:1008CC00064A7B681360002300E0012318460837B2
:1008DC00BD4680BD00000020080000200400002060
:1008EC0080B400AF054B1B781A46054B1B681344AC
:1008FC00034A136000BFBD4680BC7047080000204F
:10090C007004002080B400AF024B1B681846BD4633
:10091C0080BC70477004002080B485B000AF786054
:10092C007B6803F00703FB600C4BDB68BB60BA68A9
:10093C004FF6FF031340BB60FB681A02BB681343FE
:10094C0043F0BF6343F40033BB60044ABB68D3601D
:10095C0000BF1437BD4680BC704700BF00ED00E0FF
:10096C0080B400AF044BDB681B0A03F00703184686
:10097C00BD4680BC704700BF00ED00E080B483B082
:10098C0000AF0346FB7197F90730002B0BDBFB79AB
:10099C0003F01F02064997F907305B09012000FAA2
:1009AC0002F241F8232000BF0C37BD4680BC7047D3
:1009BC0000E100E080B483B000AF03463960FB7106
:1009CC0097F90730002B0ADB3B68DAB20C4997F930
:1009DC0007301201D2B20B4483F800230AE03B68C3
:1009EC00DAB20849FB7903F00F03043B1201D2B2CF
:1009FC000B441A7600BF0C37BD4680BC704700BF55
:100A0C0000E100E000ED00E080B489B000AFF860D8
:100A1C00B9607A60FB6803F00703FB61FB69C3F103
:100A2C000703042B28BF0423BB61FB690433062B8B
:100A3C0002D9FB69033B00E000237B614FF0FF32DE
:100A4C00BB6902FA03F3DA43BB681A407B699A402C
:100A5C004FF0FF317B6901FA03F3D9437B680B40FC
:100A6C00134318462437BD4680BC704780B582B00E
:100A7C0000AF78607B68013BB3F1807F01D3012329
:100A8C000FE00A4A7B68013B53600F214FF0FF30A7
:100A9C00FFF790FF054B00229A60044B07221A6067
:100AAC00002318460837BD4680BD00BF10E000E0AB
:100ABC0080B582B000AF78607868FFF72DFF00BF7B
:100ACC000837BD4680BD80B586B000AF0346B9601F
:100ADC007A60FB7300237B61FFF742FF78617A68D1
:100AEC00B9687869FFF790FF024697F90F30114605
:100AFC001846FFF75FFF00BF1837BD4680BD80B5B5
:100B0C0082B000AF0346FB7197F907301846FFF728
:100B1C0035FF00BF0837BD4680BD80B582B000AF41
:100B2C0078607868FFF7A2FF034618460837BD4681
:100B3C0080BD80B485B000AF78600023FB737B6808
:100B4C0093F82130022B08D07B6804229A637B68CF
:100B5C00002283F82020012320E07B681B681A68A0
:100B6C007B681B6822F00E021A607B681B681A688F
:100B7C007B681B6822F001021A607B681A6C7B6828
:100B8C00DB6B012101FA02F25A607B68012283F8C7
:100B9C0021207B68002283F82020FB7B1846143729
:100BAC00BD4680BC7047000080B584B000AF786053
:100BBC000023FB737B6893F82130022B05D07B68F4
:100BCC0004229A630123FB7351E07B681B681A684B
:100BDC007B681B6822F00E021A607B681B681A681F
:100BEC007B681B6822F001021A607B681B68224A32
:100BFC00934229D07B681B68204A934222D07B68A1
:100C0C001B681F4A93421AD07B681B681D4A93428B
:100C1C0012D07B681B681C4A93420AD07B681B6805
:100C2C001A4A934202D14FF480130EE04FF08073B6
:100C3C000BE04FF4803308E04FF4805305E04FF4A1
:100C4C00807302E0102300E00123114A53607B689B
:100C5C00012283F821207B68002283F820207B6806
:100C6C005B6B002B03D07B685B6B78689847FB7BD6
:100C7C0018461037BD4680BD080002401C000240DB
:100C8C003000024044000240580002406C00024018
:100C9C000000024080B48BB000AF78603960002354
:100CAC007B6200233B6269E101227B6A02FA03F357
:100CBC00FB613B681B68FA691340BB61BA69FB694D
:100CCC009A4240F058813B685B689A4A93425ED0E6
:100CDC00984A934275D8984A934258D0964A934270
:100CEC006FD8964A934252D0944A934269D8944A08
:100CFC0093424CD0924A934263D8924A934246D044
:100D0C00904A93425DD8122B2AD8122B59D801A2A3
:100D1C0052F823F09B0D0008750D0008870D000894
:100D2C00C90D0008CF0D0008CF0D0008CF0D00082D
:100D3C00CF0D0008CF0D0008CF0D0008CF0D000817
:100D4C00CF0D0008CF0D0008CF0D0008CF0D000807
:100D5C00CF0D0008CF0D00087D0D0008910D000887
:100D6C00794A934213D02CE03B68DB683B6229E064
:100D7C003B68DB6804333B6224E03B68DB68083388
:100D8C003B621FE03B68DB680C333B621AE03B685C
:100D9C009B68002B02D104233B6213E03B689B68E9
:100DAC00012B05D108233B627B68FA691A6109E0C3
:100DBC0008233B627B68FA695A6103E000233B62BB
:100DCC0000E000BFBB69FF2B01D87B6801E07B68AA
:100DDC0004337B61BB69FF2B02D87B6A9B0002E06A
:100DEC007B6A083B9B003B617B691A680F213B695E
:100DFC0001FA03F3DB431A40396A3B6901FA03F346
:100E0C001A437B691A603B685B6803F08053002BC4
:100E1C0000F0B1804D4B9B694C4A43F00103936148
:100E2C004A4B9B6903F00103BB60BB68484A7B6A71
:100E3C009B08023352F82330FB607B6A03F00303F8
:100E4C009B000F2202FA03F3DB43FA681340FB60AA
:100E5C007B68404A934213D07B683F4A93420DD043
:100E6C007B683E4A934207D07B683D4A934201D14E
:100E7C00032306E0042304E0022302E0012300E044
:100E8C0000237A6A02F0030292009340FA6813433B
:100E9C00FB602F497B6A9B080233FA6841F82320D8
:100EAC003B685B6803F48033002B06D02D4B1A682B
:100EBC002C49BB6913430B6006E02A4B1A68BB69CB
:100ECC00DB43284913400B603B685B6803F4003339
:100EDC00002B06D0234B5A682249BB6913434B6045
:100EEC0006E0204B5A68BB69DB431E4913404B603C
:100EFC003B685B6803F48013002B06D0194B9A688F
:100F0C001849BB6913438B6006E0164B9A68BB69A2
:100F1C00DB43144913408B603B685B6803F400139C
:100F2C00002B21D00F4BDA680E49BB691343CB6001
:100F3C0021E000BF00003210000031100000221030
:100F4C0000002110000012100000111000100240CF
:100F5C000000014000080140000C0140001001405D
:100F6C0000140140000401400B4BDA68BB69DB4301
:100F7C0009491340CB607B6A01337B623B681A687A
:100F8C007B6A22FA03F3002B7FF48EAE00BF00BF06
:100F9C002C37BD4680BC70470004014080B485B03E
:100FAC0000AF78600B467B807B689A687B88134027
:100FBC00002B02D00123FB7301E00023FB73FB7BAE
:100FCC0018461437BD4680BC704780B483B000AF60
:100FDC0078600B467B8013467B707B78002B03D0AC
:100FEC007A887B681A6103E07B881A047B681A6133
:100FFC0000BF0C37BD4680BC704780B485B000AFD5
:10100C0078600B467B807B68DB68FB607A88FB68CA
:10101C0013401A04FB68D9437B880B401A437B6846
:10102C001A6100BF1437BD4680BC704780B582B0D2
:10103C0000AF0346FB80084B5A69FB881340002B1A
:10104C0006D0054AFB885361FB881846FFF78CFADB
:10105C0000BF0837BD4680BD00040140F0B58BB021
:10106C0006AF78607B68002B01D10123FDE07B6823
:10107C0093F8A932DBB2002B06D17B68002283F8EF
:10108C00A822786807F072F87B68032283F8A922FB
:10109C007B681B68184603F079FA7B681B683B6019
:1010AC007E686D4606F110040FCC0FC523682B60CB
:1010BC00331D0ECB386803F043FA0346002B05D0E2
:1010CC007B68022283F8A9220123CEE07B681B688F
:1010DC000021184603F074FA0023FB734CE0FB7BF1
:1010EC0079685A1C13469B001344DB000B440133F4
:1010FC0001221A70FB7B79685A1C13469B0013441F
:10110C00DB000B44FA7B1A70FA7BFB7B98B2796894
:10111C0013469B001344DB000B44363302461A8003
:10112C00FB7B79685A1C13469B001344DB000B4471
:10113C00033300221A70FA7B796813469B00134420
:10114C00DB000B44383300221A60FA7B79681346B3
:10115C009B001344DB000B443C3300221A60FA7BE7
:10116C00796813469B001344DB000B444033002288
:10117C001A60FB7B0133FB73FA7B7B685B689A42DA
:10118C00ADD30023FB7344E0FA7B796813469B00D4
:10119C001344DB000B4403F2691300221A70FA7B30
:1011AC00796813469B001344DB000B4403F5B473BE
:1011BC00FA7B1A70FA7B796813469B001344DB00A8
:1011CC000B4403F26B1300221A70FA7B79681346F6
:1011DC009B001344DB000B4403F5BC7300221A6024
:1011EC00FA7B796813469B001344DB000B4403F530
:1011FC00BE7300221A60FA7B796813469B00134475
:10120C00DB000B4403F5C07300221A60FB7B013337
:10121C00FB73FA7B7B685B689A42B5D37B681B686F
:10122C003B607E686D4606F110040FCC0FC5236839
:10123C002B60331D0ECB386803F0CEF90346002B20
:10124C0005D07B68022283F8A92201230DE07B687C
:10125C00002283F824207B68012283F8A9227B6872
:10126C001B68184605F068F9002318461437BD466C
:10127C00F0BD80B582B000AF78607B6893F8A8327F
:10128C00012B01D1022316E07B68012283F8A822EE
:10129C007B681B68184603F063F90121786807F036
:1012AC00D8F97B681B68184605F03CF97B6800226E
:1012BC0083F8A822002318460837BD4680BD80B5A8
:1012CC0088B000AF78607B681B68184605F03EF963
:1012DC00034603F40043B3F5004F02D1786800F0E5
:1012EC0061FB7B681B68184605F030F9034603F474
:1012FC008063B3F5806F12D17B681B68B3F8443000
:10130C009AB27B681B6822F4806292B2A3F84420E4
:10131C00786806F0A6FF0021786800F025F97B6854
:10132C001B68184605F012F9034603F48043B3F525
:10133C00804F0BD17B681B68B3F844309AB27B6842
:10134C001B6822F4804292B2A3F844207B681B688D
:10135C00184605F0FBF8034603F40053B3F5005FA1
:10136C000BD17B681B68B3F844309AB27B681B685E
:10137C0022F4005292B2A3F844207B681B681846F2
:10138C0005F0E4F8034603F48053B3F5805F26D1EF
:10139C007B681B68B3F840309AB27B681B6822F0FC
:1013AC00040292B2A3F840207B681B68B3F840306B
:1013BC009AB27B681B6822F0080292B2A3F8402014
:1013CC00786806F087FF7B681B68B3F844309AB2E4
:1013DC007B681B6822F4805292B2A3F844207B688D
:1013EC001B68184605F0B2F8034603F40063B3F526
:1013FC00006F40F084800023FB7711E07B681B6852
:10140C001A46FB7F9B001A44FB7F128892B25B004A
:10141C0007F120010B4423F8142CFB7F0133FB77DD
:10142C00FB7F072BEAD97B681B68B3F840309AB274
:10143C007B681B6842F0010292B2A3F840207B68E3
:10144C001B68B3F840309AB27B681B6822F001022B
:10145C0092B2A3F8402000BF7B681B68B3F84430FD
:10146C009BB203F48063002BF6D07B681B68B3F847
:10147C0044309AB27B681B6822F4806292B2A3F863
:10148C0044200023FB7710E0FB7F7A68126811463A
:10149C00FA7F92000A445B0007F120010B4433F8F9
:1014AC00143C1380FB7F0133FB77FB7F072BEBD9BD
:1014BC007B681B68B3F840309AB27B681B6842F0BB
:1014CC00080292B2A3F840207B681B68B3F8443042
:1014DC009AB27B681B6822F4006292B2A3F8442093
:1014EC007B681B68B3F840309AB27B681B6842F08B
:1014FC00040292B2A3F84020786806F0D1FE7B6813
:10150C001B68184605F022F8034603F40073B3F584
:10151C00007F0ED17B681B68B3F844309AB27B68AD
:10152C001B6822F4007292B2A3F84420786806F08B
:10153C008AFE7B681B68184605F008F8034603F41E
:10154C008073B3F5807F0BD17B681B68B3F8443094
:10155C009AB27B681B6822F4807292B2A3F8442082
:10156C0000BF2037BD4680BD80B582B000AF78602B
:10157C000B46FB707B6893F8A832012B01D1022338
:10158C0013E07B68012283F8A8227B68FA7883F841
:10159C0024207B681B68FA781146184604F0AFFFCC
:1015AC007B68002283F8A822002318460837BD4622
:1015BC0080BD80B584B000AF7860084611461A46ED
:1015CC000346FB700B463B801346BB700023FB723B
:1015DC0097F90330002B0EDAFB7803F007035A1C43
:1015EC0013469B001344DB007A681344FB60FB68D2
:1015FC0001225A700EE0FB7803F0070213469B00A1
:10160C001344DB0003F5B4737A681344FB60FB6886
:10161C0000225A70FB7803F00703DAB2FB681A70E9
:10162C003A88FB681A61FB68BA78DA70FB685B78F9
:10163C00002B04D0FB681B789AB2FB68DA81BB786C
:10164C00022B02D1FB6800221A717B6893F8A83236
:10165C00012B01D102230EE07B68012283F8A82222
:10166C007B681B68F968184602F0D6FF7B6800227D
:10167C0083F8A822FB7A18461037BD4680BD80B58A
:10168C0084B000AF78600B46FB7097F90330002BE9
:10169C000EDAFB7803F007035A1C13469B00134425
:1016AC00DB007A681344FB60FB6801225A700EE081
:1016BC00FB7803F0070213469B001344DB0003F591
:1016CC00B4737A681344FB60FB6800225A70FB7891
:1016DC0003F00703DAB2FB681A707B6893F8A83240
:1016EC00012B01D102230EE07B68012283F8A82292
:1016FC007B681B68F968184603F0F8FA7B680022CF
:10170C0083F8A822002318461037BD4680BD80B54B
:10171C0086B000AFF8607A603B600B46FB72FB7AD8
:10172C0003F0070213469B001344DB0003F5B4736C
:10173C00FA6813447B617B697A685A617B693A6801
:10174C009A617B690022DA617B6900225A70FB7A0C
:10175C0003F00703DAB27B691A70FB7A03F0070314
:10176C00002B06D1FB681B687969184603F0AAFCAC
:10177C0005E0FB681B687969184603F0A3FC00239D
:10178C0018461837BD4680BD80B483B000AF786072
:10179C000B46FB70FB7803F00702796813469B003D
:1017AC001344DB000B4403F5C2731B6818460C375B
:1017BC00BD4680BC704780B586B000AFF8607A60DB
:1017CC003B600B46FB72FB7A03F007035A1C134673
:1017DC009B001344DB00FA6813447B617B697A68D5
:1017EC005A617B693A689A617B69012283F82420EB
:1017FC007B693A681A627B690022DA617B69012293
:10180C005A70FB7A03F00703DAB27B691A70FB7A21
:10181C0003F00703002B06D1FB681B687969184697
:10182C0003F050FC05E0FB681B687969184603F06F
:10183C0049FC002318461837BD4680BD80B584B0DE
:10184C0000AF78600B46FB70FB7803F007027B68F7
:10185C005B689A4201D901234CE097F90330002BC5
:10186C000EDAFB7803F007035A1C13469B00134453
:10187C00DB007A681344FB60FB6801225A700CE0B1
:10188C00FA7813469B001344DB0003F5B4737A68B3
:10189C001344FB60FB6800225A70FB6801229A70AB
:1018AC00FB7803F00703DAB2FB681A707B6893F8D5
:1018BC00A832012B01D102231CE07B68012283F8A2
:1018CC00A8227B681B68F968184604F01BFDFB789E
:1018DC0003F00703002B08D17B681A687B6803F5BB
:1018EC002C731946104604F040FE7B68002283F8E6
:1018FC00A822002318461037BD4680BD80B584B0A1
:10190C0000AF78600B46FB70FB7803F00F027B682E
:10191C005B689A4201D9012340E097F90330002B10
:10192C000EDAFB7803F007035A1C13469B00134492
:10193C00DB007A681344FB60FB6801225A700EE0EE
:10194C00FB7803F0070213469B001344DB0003F5FE
:10195C00B4737A681344FB60FB6800225A70FB680E
:10196C0000229A70FB7803F00703DAB2FB681A7056
:10197C007B6893F8A832012B01D102230EE07B681F
:10198C00012283F8A8227B681B68F968184604F0CA
:10199C0009FD7B68002283F8A82200231846103723
:1019AC00BD4680BD80B58EB000AF7860DFE27B684D
:1019BC001B68B3F84430FB85FB8DDBB203F00F03DF
:1019CC0087F82D3097F82D30002B40F05881FB8D87
:1019DC0003F01003002B52D17B681B681B889BB251
:1019EC0023F4E14323F07003FB817B681A68FB89C5
:1019FC006FEA43436FEA53439BB213807B682833EF
:101A0C007B627B681B68B3F850309BB21A467B6ACA
:101A1C001B78DB00134402335B007A6812681344B2
:101A2C0003F580631B88C3F309027B6ADA617B6A66
:101A3C005A697B6ADB691A447B6A5A6100217868AF
:101A4C0006F0E7FB7B6893F82430DBB2002B00F048
:101A5C008E827B6A9B69002B40F089827B6893F8AD
:101A6C002430DBB263F07F03DAB27B681B6892B27E
:101A7C00A3F84C207B68002283F8242077E27B6853
:101A8C0003F5B4737B627B681B681B887B857B8D3D
:101A9C0003F40063002B34D07B681B68B3F8503020
:101AAC009BB21A467B6A1B78DB00134406335B003F
:101ABC007A681268134403F580631B88C3F3090228
:101ACC007B6ADA617B6818687B6803F52C717B6A2A
:101ADC00DA887B6ADB699BB204F097FD7B681B6834
:101AEC001B889AB240F68F7313403B827B681B684D
:101AFC003A8A42F0800292B21A80786806F05CFB57
:101B0C0035E2B7F92A30002B80F231827B681B68F2
:101B1C001B889AB240F68F731340BB837B681B689B
:101B2C00BA8B42F0800292B21A807B681B68B3F8C1
:101B3C0050309BB21A467B6A1B78DB001344063389
:101B4C005B007A681268134403F580631B88C3F347
:101B5C0009027B6ADA617B6ADB69002B19D07B6A2C
:101B6C005B69002B15D07B6818687B6A59697B6AA6
:101B7C00DA887B6ADB699BB204F047FD7B6A5A69A1
:101B8C007B6ADB691A447B6A5A610021786806F02B
:101B9C0025FB7B681B68BB617B681B68B3F8503006
:101BAC009BB21A46BB691344BB61BB6903F20C437D
:101BBC007B617B6A1B69002B12D17B691B889BB2F2
:101BCC0023F4F8439AB27B691A807B691B889BB219
:101BDC006FEA43436FEA53439AB27B691A802FE052
:101BEC007B6A1B693E2B13D87B6A1B695B083B63C2
:101BFC007B6A1B6903F00103002B02D03B6B0133A2
:101C0C003B633B6B9BB29B029AB27B691A8017E0D9
:101C1C007B6A1B695B093B637B6A1B6903F01F03CF
:101C2C00002B02D13B6B013B3B633B6B9BB29B029A
:101C3C009BB26FEA43436FEA53439AB27B691A80B3
:101C4C007B681B681B889BB223F4804323F07003D2
:101C5C007B827B8A83F480537B827B8A83F4005360
:101C6C007B827B681A687B8A43F07F4343F47F0353
:101C7C0043F4004343F080039BB2138077E17B680D
:101C8C001B681A4697F82D309B0013441B887B85E4
:101C9C00B7F92A30002B80F2EA807B681B681A4661
:101CAC0097F82D309B0013441B889AB240F68F7323
:101CBC0013403B857B681B681A4697F82D309B00B8
:101CCC0013443A8D42F0800292B21A8097F82D207C
:101CDC0013469B001344DB0003F5B4737A6813447A
:101CEC007B627B6A1B7B002B22D17B681B68B3F861
:101CFC0050309BB21A467B6A1B78DB0013440633C8
:101D0C005B007A681268134403F580631B88C3F385
:101D1C000903FB86FB8E002B00F087807B6818681C
:101D2C007B6A59697B6ADA88FB8E04F06EFC7CE076
:101D3C007B6ADB78022B08D17B8D1A46796A78682E
:101D4C0000F023F90346FB866FE07B681B681A469C
:101D5C007B6A1B789B0013441B889BB223F4E043E3
:101D6C0023F070037B847B681B681A467B6A1B78A4
:101D7C009B001A447B8C43F07F4343F47F0343F472
:101D8C00004343F0C0039BB213807B681B681A4668
:101D9C007B6A1B789B0013441B889BB203F4804323
:101DAC00002B21D07B681B68B3F850309BB21A46CD
:101DBC007B6A1B78DB00134402335B007A68126881
:101DCC00134403F580631B88C3F30903FB86FB8E66
:101DDC00002B2AD07B6818687B6A59697B6A1A8940
:101DEC00FB8E04F012FC20E07B681B68B3F85030CB
:101DFC009BB21A467B6A1B78DB00134406335B00EC
:101E0C007A681268134403F580631B88C3F30903D3
:101E1C00FB86FB8E002B08D07B6818687B6A59699F
:101E2C007B6A5A89FB8E04F0F0FB7B6ADA69FB8EC5
:101E3C001A447B6ADA617B6A5A69FB8E1A447B6AA4
:101E4C005A617B6A9B69002B04D0FA8E7B6A1B69F2
:101E5C009A4206D27B6A1B781946786806F0BEF95E
:101E6C0005E07B681B68796A184603F02BF97B8DBB
:101E7C0003F08003002B7AD097F82D305A1C1346B0
:101E8C009B001344DB007A6813447B627B681B68FD
:101E9C001A4697F82D309B0013441B889BB223F4F1
:101EAC00E14323F070033B847B681B681A4697F868
:101EBC002D309B001A443B8C6FEA43436FEA53432B
:101ECC009BB213807B6ADB78022B08D17B6ADB78B0
:101EDC00022B46D17B8D03F48073002B41D17B68A0
:101EEC001B68B3F850309BB21A467B6A1B78DB0038
:101EFC00134402335B007A681268134403F5806361
:101F0C001B88C3F30903FB837B6A9A69FB8B9A4298
:101F1C0006D97B6A9A69FB8BD21A7B6A9A6102E0BA
:101F2C007B6A00229A617B6A9B69002B06D17B6AD3
:101F3C001B781946786806F06CF918E07B6A5A69C8
:101F4C00FB8B1A447B6A5A617B6ADA69FB8B1A44F5
:101F5C007B6ADA617B681B68796A184603F0B2F811
:101F6C0005E07B8D1A46796A786800F01BF97B686E
:101F7C001B68B3F844309BB21BB2002BFFF617ADB5
:101F8C00002318463837BD4680BD80B588B000AFF9
:101F9C00F860B9601346FB80FB8803F48043002B88
:101FAC007ED0FB681B68B3F850309BB21A46BB68F6
:101FBC001B78DB00134402335B00FA68126813448D
:101FCC0003F580631B88C3F309037B83BB689A69A1
:101FDC007B8B9A4206D3BB689A697B8BD21ABB68FF
:101FEC009A6102E0BB6800229A61BB689B69002B76
:101FFC0023D1FB681B681A46BB681B789B001344F3
:10200C001B889BB223F4804323F070033B833B8BF0
:10201C0083F400533B83FB681B681A46BB681B7830
:10202C009B001A443B8B43F07F4343F47F0343F400
:10203C00004343F080039BB21380FB8803F0400302
:10204C00002B1FD0FB681B681A46BB681B789B00D3
:10205C0013441B889BB223F4E04323F07003FB82F0
:10206C00FB681B681A46BB681B789B001A44FB8AEA
:10207C0043F07F4343F47F0343F4004343F0C00336
:10208C009BB213807B8B002B00F08780FB68186859
:10209C00BB685969BB681A897B8B04F0B6FA7CE083
:1020AC00FB681B68B3F850309BB21A46BB681B78B0
:1020BC00DB00134406335B00FA681268134403F523
:1020CC0080631B88C3F309037B83BB689A697B8B92
:1020DC009A4206D3BB689A697B8BD21ABB689A6109
:1020EC0002E0BB6800229A61BB689B69002B23D17C
:1020FC00FB681B681A46BB681B789B0013441B8843
:10210C009BB223F4804323F07003FB83FB8B83F49B
:10211C000053FB83FB681B681A46BB681B789B004B
:10212C001A44FB8B43F07F4343F47F0343F4004397
:10213C0043F080039BB21380FB8803F04003002B19
:10214C001FD1FB681B681A46BB681B789B001344A5
:10215C001B889BB223F4E04323F07003BB83FB6822
:10216C001B681A46BB681B789B001A44BB8B43F058
:10217C007F4343F47F0343F4004343F0C0039BB21B
:10218C0013807B8B002B08D0FB681868BB685969DF
:10219C00BB685A897B8B04F038FA7B8B1846203746
:1021AC00BD4680BD80B594B000AFF860B9601346F1
:1021BC00FB80FB8803F04003002B00F03881FB68A8
:1021CC001B68B3F850309BB21A46BB681B78DB0017
:1021DC00134402335B00FA681268134403F58063FE
:1021EC001B88C3F30903A7F84830BB689A69B7F892
:1021FC0048309A4207D9BB689A69B7F84830D21A66
:10220C00BB689A6102E0BB6800229A61BB689B695B
:10221C00002B2CD1BB681B781946F86805F0F9FF28
:10222C00FB8803F48043002B00F03A82FB681B68A8
:10223C001A46BB681B789B0013441B889BB223F483
:10224C00E04323F07003FB82FB681B681A46BB68F3
:10225C001B789B001A44FB8A43F07F4343F47F03B3
:10226C0043F4404343F080039BB2138018E2FB8895
:10227C0003F48043002B1FD0FB681B681A46BB6815
:10228C001B789B0013441B889BB223F4E04323F080
:10229C0070037B85FB681B681A46BB681B789B0028
:1022AC001A447B8D43F07F4343F47F0343F4404354
:1022BC0043F080039BB21380BB6893F82430012B4E
:1022CC0040F0EE81BB685A69B7F848301A44BB68D5
:1022DC005A61BB68DA69B7F848301A44BB68DA61EE
:1022EC00BB681A6ABB681B699A4209D3BB681B6935
:1022FC007B64BB681A6A7B6CD21ABB681A6215E0E5
:10230C00BB681B6A002B07D1B7F848307B64BB68ED
:10231C00002283F8242009E0BB68002283F82420E3
:10232C00BB681B6A7B64BB6800221A62BB685B7863
:10233C00002B55D1FB681B68FB61FB681B68B3F86D
:10234C0050309BB21A46FB691344FB61BB681B7887
:10235C001A01FB69134403F20443BB617B6C002B31
:10236C0012D1BB691B889BB223F4F8439AB2BB69A8
:10237C001A80BB691B889BB26FEA43436FEA5343D5
:10238C009AB2BB691A8047E07B6C3E2B11D87B6CF0
:10239C005B08FB627B6C03F00103002B02D0FB6A31
:1023AC000133FB62FB6A9BB29B029AB2BB691A8037
:1023BC0032E07B6C5B09FB627B6C03F01F03002B30
:1023CC0002D1FB6A013BFB62FB6A9BB29B029BB294
:1023DC006FEA43436FEA53439AB2BB691A801BE01E
:1023EC00BB685B78012B17D1FB681B687B62FB68B1
:1023FC001B68B3F850309BB21A467B6A13447B625D
:10240C00BB681B781A017B6A134403F204433B62DA
:10241C007B6C9AB23B6A1A80FB681868BB68596976
:10242C00BB681A897B6C9BB204F0AAF838E1FB6894
:10243C001B68B3F850309BB21A46BB681B78DB00A4
:10244C00134406335B00FA681268134403F5806387
:10245C001B88C3F30903A7F84830BB689A69B7F81F
:10246C0048309A4207D3BB689A69B7F84830D21AF9
:10247C00BB689A6102E0BB6800229A61BB689B69E9
:10248C00002B2ED1BB681B781946F86805F0C1FEED
:10249C00FB8803F48043002B40F00281FB681B682F
:1024AC001A46BB681B789B0013441B889BB223F411
:1024BC00E04323F07003A7F84A30FB681B681A4608
:1024CC00BB681B789B001A44B7F84A3043F07F4333
:1024DC0043F47F0343F4404343F080039BB21380E7
:1024EC00DEE0FB8803F48043002B1FD1FB681B68E4
:1024FC001A46BB681B789B0013441B889BB223F4C1
:10250C00E04323F070037B86FB681B681A46BB68AC
:10251C001B789B001A447B8E43F07F4343F47F036C
:10252C0043F4404343F080039BB21380BB6893F8A1
:10253C002430012B40F0B480BB685A69B7F848309E
:10254C001A44BB685A61BB68DA69B7F848301A4458
:10255C00BB68DA61BB681A6ABB681B699A4209D30B
:10256C00BB681B697B64BB681A6A7B6CD21ABB683C
:10257C001A6215E0BB681B6A002B07D1B7F848300C
:10258C007B64BB68002283F8242009E0BB681B6ACB
:10259C007B64BB6800221A62BB68002283F824208B
:1025AC00FB681B683B64BB685B78002B55D1FB68F0
:1025BC001B68BB63FB681B68B3F850309BB21A46B0
:1025CC00BB6B1344BB63BB681B781A01BB6B134416
:1025DC0003F20C437B637B6C002B12D17B6B1B884F
:1025EC009BB223F4F8439AB27B6B1A807B6B1B88EB
:1025FC009BB26FEA43436FEA53439AB27B6B1A80E8
:10260C0044E07B6C3E2B11D87B6C5B08FB647B6CD1
:10261C0003F00103002B02D0FB6C0133FB64FB6C59
:10262C009BB29B029AB27B6B1A802FE07B6C5B098E
:10263C00FB647B6C03F01F03002B02D1FB6C013B92
:10264C00FB64FB6C9BB29B029BB26FEA43436FEA49
:10265C0053439AB27B6B1A8018E0BB685B78012BF2
:10266C0014D1FB681B68B3F850309BB21A463B6C14
:10267C0013443B64BB681B781A013B6C134403F294
:10268C000C43FB637B6C9AB2FB6B1A80FB6818687B
:10269C00BB685969BB685A897B6C9BB203F070FFAD
:1026AC00FB681B681A46BB681B789B0013441B888D
:1026BC009BB223F4E04323F04003BB82BB8A83F03C
:1026CC001003BB82BB8A83F02003BB82FB681B68B0
:1026DC001A46BB681B789B001A44BB8A43F07F43A5
:1026EC0043F47F0343F4004343F080039BB2138015
:1026FC00002318465037BD4680BD80B487B000AF6C
:10270C00F8607B600B467B8113463B817B8903F031
:10271C0080039BB2002B0BD07B8903F007035A1C60
:10272C0013469B001344DB00FA6813447B6109E0F9
:10273C007A8913469B001344DB0003F5B473FA68E3
:10274C0013447B613B89002B07D17B6900221A73F0
:10275C007B689AB27B69DA800BE07B6901221A7381
:10276C007B689AB27B691A817B681B0C9AB27B6975
:10277C005A81002318461C37BD4680BC70470000A8
:10278C0080B586B000AF78607B68002B01D1012347
:10279C006CE27B681B6803F00103002B00F0878060
:1027AC00924B5B6803F00C03042B0CD08F4B5B68D3
:1027BC0003F00C03082B12D18C4B5B6803F48033B1
:1027CC00B3F5803F0BD1894B1B6803F40033002B0E
:1027DC006CD07B685B68002B68D1012346E27B6878
:1027EC005B68B3F5803F06D1804B1B687F4A43F48E
:1027FC00803313602EE07B685B68002B0CD17B4B25
:10280C001B687A4A23F480331360784B1B68774A31
:10281C0023F4802313601DE07B685B68B3F5A02F65
:10282C000CD1724B1B68714A43F4802313606F4BBD
:10283C001B686E4A43F4803313600BE06B4B1B68D0
:10284C006A4A23F480331360684B1B68674A23F48D
:10285C00802313607B685B68002B13D0FEF752F863
:10286C00386108E0FEF74EF802463B69D31A642B38
:10287C0001D90323FAE15D4B1B6803F40033002BF1
:10288C00F0D014E0FEF73EF8386108E0FEF73AF8B5
:10289C0002463B69D31A642B01D90323E6E1534B5F
:1028AC001B6803F40033002BF0D100E000BF7B6801
:1028BC001B6803F00203002B63D04C4B5B6803F0E6
:1028CC000C03002B0BD0494B5B6803F00C03082B5B
:1028DC001CD1464B5B6803F48033002B16D1434B61
:1028EC001B6803F00203002B05D07B681B69012BCE
:1028FC0001D00123BAE13D4B1B6823F0F8027B6841
:10290C005B69DB00394913430B603AE07B681B6958
:10291C00002B20D0364B01221A60FDF7F3FF3861F3
:10292C0008E0FDF7EFFF02463B69D31A022B01D9F1
:10293C0003239BE12D4B1B6803F00203002BF0D00B
:10294C002A4B1B6823F0F8027B685B69DB00274984
:10295C0013430B6015E0264B00221A60FDF7D2FFE3
:10296C00386108E0FDF7CEFF02463B69D31A022B13
:10297C0001D903237AE11D4B1B6803F00203002BE2
:10298C00F0D17B681B6803F00803002B3AD07B68FE
:10299C009B69002B19D0174B01221A60FDF7B2FF6F
:1029AC00386108E0FDF7AEFF02463B69D31A022BF3
:1029BC0001D903235AE10D4B5B6A03F00203002B90
:1029CC00F0D0012000F0D8FA1CE00A4B00221A606B
:1029DC00FDF798FF38610FE0FDF794FF02463B6965
:1029EC00D31A022B08D9032340E100BF0010024088
:1029FC0000004242800442429E4B5B6A03F0020399
:102A0C00002BE9D17B681B6803F00403002B00F05A
:102A1C00A6800023FB75974BDB6903F08053002BDA
:102A2C000DD1944BDB69934A43F08053D361914BA6
:102A3C00DB6903F08053BB60BB680123FB758E4BD5
:102A4C001B6803F48073002B18D18B4B1B688A4ACC
:102A5C0043F480731360FDF755FF386108E0FDF710
:102A6C0051FF02463B69D31A642B01D90323FDE0C5
:102A7C00814B1B6803F48073002BF0D07B68DB6800
:102A8C00012B06D17B4B1B6A7A4A43F0010313627C
:102A9C002DE07B68DB68002B0CD1764B1B6A754AEA
:102AAC0023F001031362734B1B6A724A23F0040375
:102ABC0013621CE07B68DB68052B0CD16D4B1B6A29
:102ACC006C4A43F0040313626A4B1B6A694A43F075
:102ADC00010313620BE0674B1B6A664A23F0010388
:102AEC001362644B1B6A634A23F0040313627B6812
:102AFC00DB68002B15D0FDF705FF38610AE0FDF708
:102B0C0001FF02463B69D31A41F28832934201D944
:102B1C000323ABE0574B1B6A03F00203002BEED0F0
:102B2C0014E0FDF7EFFE38610AE0FDF7EBFE02461C
:102B3C003B69D31A41F28832934201D9032395E0C1
:102B4C004C4B1B6A03F00203002BEED1FB7D012BD7
:102B5C0005D1484BDB69474A23F08053D3617B682E
:102B6C00DB69002B00F08180424B5B6803F00C03A7
:102B7C00082B61D07B68DB69022B46D13F4B0022CE
:102B8C001A60FDF7BFFE386108E0FDF7BBFE024698
:102B9C003B69D31A022B01D9032367E0354B1B6821
:102BAC0003F00073002BF0D17B681B6AB3F5803FF8
:102BBC0008D1304B5B6823F400327B689B682D494D
:102BCC0013434B602B4B5B6823F474127B68196ABC
:102BDC007B685B6A0B43274913434B60274B0122ED
:102BEC001A60FDF78FFE386108E0FDF78BFE024698
:102BFC003B69D31A022B01D9032337E01D4B1B6809
:102C0C0003F00073002BF0D02FE01C4B00221A6055
:102C1C00FDF778FE386108E0FDF774FE02463B696B
:102C2C00D31A022B01D9032320E0124B1B6803F0AB
:102C3C000073002BF0D118E07B68DB69012B01D10C
:102C4C00012313E00B4B5B68FB60FB6803F48032E1
:102C5C007B681B6A9A4206D1FB6803F470127B688E
:102C6C005B6A9A4201D0012300E000231846183712
:102C7C00BD4680BD00100240007000406000424222
:102C8C0080B584B000AF786039607B68002B01D1CF
:102C9C000123D0E06A4B1B6803F007033A689A42A1
:102CAC0010D9674B1B6823F0070265493B68134337
:102CBC000B60634B1B6803F007033A689A4201D020
:102CCC000123B8E07B681B6803F00203002B20D0C3
:102CDC007B681B6803F00403002B05D0594B5B6821
:102CEC00584A43F4E06353607B681B6803F00803A5
:102CFC00002B05D0534B5B68524A43F4605353602E
:102D0C00504B5B6823F0F0027B689B684D49134382
:102D1C004B607B681B6803F00103002B40D07B6881
:102D2C005B68012B07D1474B1B6803F40033002B66
:102D3C0015D101237FE07B685B68022B07D1414BE7
:102D4C001B6803F00073002B09D1012373E03D4B8A
:102D5C001B6803F00203002B01D101236BE0394BFC
:102D6C005B6823F003027B685B68364913434B6056
:102D7C00FDF7C8FDF8600AE0FDF7C4FD0246FB68EC
:102D8C00D31A41F28832934201D9032353E02D4BDD
:102D9C005B6803F00C027B685B689B009A42EBD18A
:102DAC00274B1B6803F007033A689A4210D2244B56
:102DBC001B6823F0070222493B6813430B60204B2E
:102DCC001B6803F007033A689A4201D0012332E0F2
:102DDC007B681B6803F00403002B08D0194B5B685D
:102DEC0023F4E0627B68DB68164913434B607B6815
:102DFC001B6803F00803002B09D0124B5B6823F40B
:102E0C0060527B681B69DB000E4913434B6000F07A
:102E1C0021F802460B4B5B681B0903F00F030A49B0
:102E2C00CB5C22FA03F3094A1360094B1B68184662
:102E3C00FDF726FD002318461037BD4680BD00BFA8
:102E4C0000200240001002408C8700080000002087
:102E5C000400002090B48AB000AF2A4B3C1D0FCB6D
:102E6C0084E80F0040F201233B800023FB61002328
:102E7C00BB6100237B6200237B6100233B62224BFE
:102E8C005B68FB61FB6903F00C03042B02D0082B7D
:102E9C0003D02DE01D4B3B622DE0FB699B0C03F036
:102EAC000F0307F12802134413F8243C7B61FB69E0
:102EBC0003F48033002B13D0134B5B685B0C03F0D3
:102ECC00010307F12802134413F8283CBB617B690A
:102EDC000E4A02FB03F2BB69B2FBF3F37B6204E024
:102EEC007B690B4A02FB03F37B627B6A3B6202E069
:102EFC00064B3B6200BF3B6A18462837BD4690BC68
:102F0C00704700BF3C8700080010024000127A0096
:102F1C0000093D0080B400AF024B1B681846BD464B
:102F2C0080BC70470000002080B500AFFFF7F2FFB7
:102F3C000246054B5B681B0A03F007030349CB5C95
:102F4C0022FA03F3184680BD001002409C8700084B
:102F5C0080B500AFFFF7DEFF0246054B5B68DB0A6E
:102F6C0003F007030349CB5C22FA03F3184680BD38
:102F7C00001002409C87000880B485B000AF7860D8
:102F8C000A4B1B680A4AA2FB03235B0A7A6802FB02
:102F9C0003F3FB6000BFFB685A1EFA60002BF9D1EB
:102FAC0000BF00BF1437BD4680BC70470000002036
:102FBC00D34D621080B586B000AF786000233B61C2
:102FCC000023FB607B681B6803F00103002B7DD0A2
:102FDC000023FB754F4BDB6903F08053002B0DD1A5
:102FEC004C4BDB694B4A43F08053D361494BDB6953
:102FFC0003F08053BB60BB680123FB75464B1B6819
:10300C0003F48073002B18D1434B1B68424A43F4E2
:10301C0080731360FDF776FC386108E0FDF772FCF5
:10302C0002463B69D31A642B01D903236DE03A4B5A
:10303C001B6803F48073002BF0D0364B1B6A03F42F
:10304C004073FB60FB68002B2ED07B685B6803F43D
:10305C004073FA689A4227D02E4B1B6A23F44073B4
:10306C00FB602E4B01221A602C4B00221A60294A5D
:10307C00FB681362FB6803F00103002B14D0FDF70F
:10308C0041FC38610AE0FDF73DFC02463B69D31A6E
:10309C0041F28832934201D9032336E01D4B1B6A5F
:1030AC0003F00203002BEED01A4B1B6A23F4407280
:1030BC007B685B68174913430B62FB7D012B05D1C1
:1030CC00144BDB69134A23F08053D3617B681B6874
:1030DC0003F00203002B08D00E4B5B6823F4404234
:1030EC007B689B680B4913434B607B681B6803F040
:1030FC001003002B08D0074B5B6823F480027B681D
:10310C00DB68044913434B60002318461837BD464F
:10311C0080BD00BF001002400070004040044242DD
:10312C0080B582B000AF78607B68002B01D10123A1
:10313C0076E07B685B6A002B08D17B685B68B3F533
:10314C00827F09D07B680022DA6105E07B6800226F
:10315C001A617B6800225A617B6800229A627B6844
:10316C0093F85130DBB2002B06D17B68002283F838
:10317C0050207868FDF75CFA7B68022283F85120B6
:10318C007B681B681A687B681B6822F040021A6017
:10319C007B685B6803F482727B689B6803F404436E
:1031AC001A437B68DB6803F400631A437B681B6972
:1031BC0003F002031A437B685B6903F001031A43B3
:1031CC007B689B6903F400731A437B68DB6903F02B
:1031DC0038031A437B681B6A03F0800342EA03013D
:1031EC007B689B6A03F400527B681B680A431A6075
:1031FC007B689B691A0C7B681B6802F004025A609E
:10320C007B681B68DA697B681B6822F40062DA61F0
:10321C007B6800225A657B68012283F851200023C9
:10322C0018460837BD4680BD80B586B000AFF86043
:10323C00B9601346FB800023FB75FB689B68002B71
:10324C0010D1FB685B68B3F5827F0BD1FB6804225D
:10325C0083F85120FB88BA68B968F86800F082F8E6
:10326C00034676E0FB6893F85030012B01D1022322
:10327C006FE0FB68012283F85020FB6893F8513013
:10328C00DBB2012B02D00223FB755DE0BB68002B87
:10329C0002D0FB88002B02D10123FB7554E0FB68A4
:1032AC00042283F85120FB6800225A65FB68BA6837
:1032BC009A63FB68FA889A87FB68FA88DA87FB6856
:1032CC0000221A63FB6800229A86FB680022DA86C9
:1032DC00FB6800225A64FB68DB68002B03D0FB6898
:1032EC001E4A1A6402E0FB681D4A1A64FB689B685C
:1032FC00B3F5004F0FD1FB681B681A68FB681B689D
:10330C0022F040021A60FB681B681A68FB681B6895
:10331C0022F480421A60FB681B685A68FB681B68C1
:10332C0042F060025A60FB681B681B6803F04003A4
:10333C00402B08D0FB681B681A68FB681B6842F0BE
:10334C0040021A6000E000BFFB68002283F85020A6
:10335C00FB7D18461837BD4680BD00BF5F3A00089C
:10336C00153A000880B487B000AFF860B9607A6095
:10337C007B800023FB75FB6893F85030012B01D147
:10338C00022375E0FB68012283F85020FB6893F858
:10339C005130BB75FB685B683B61BB7D012B0DD06D
:1033AC003B69B3F5827F06D1FB689B68002B02D189
:1033BC00BB7D042B02D00223FB7554E0BB68002BB1
:1033CC0005D07B68002B02D07B88002B02D1012317
:1033DC00FB7548E0FB6893F85130DBB2042B03D04B
:1033EC00FB68052283F85120FB6800225A65FB68B4
:1033FC00BA681A63FB687A889A86FB687A88DA86D8
:10340C00FB687A689A63FB687A889A87FB687A8883
:10341C00DA87FB68DB68002B06D0FB68174A1A6456
:10342C00FB68174A5A6405E0FB68164A1A64FB6885
:10343C00154A5A64FB681B685A68FB681B6842F0A3
:10344C00E0025A60FB681B681B6803F04003402BCA
:10345C0008D0FB681B681A68FB681B6842F04002C6
:10346C001A6000E000BFFB68002283F85020FB7D4F
:10347C0018461C37BD4680BC704700BF5739000842
:10348C00B739000893380008F738000880B586B0C3
:10349C0000AF78600023FB756A4B1B686A4AA2FB7D
:1034AC0003235B0A642202FB03F3FB60FB683B61B2
:1034BC007B681B685A687B681B6822F020025A6084
:1034CC007B681B685B6803F08003002B17D07B685C
:1034DC005E4A5A643B69002B06D17B685B6D43F0F6
:1034EC0040027B685A6508E03B69013B3B617B68A5
:1034FC0093F85130DBB2072BECD1FB683B617B6856
:10350C001B685B6803F04003002B17D07B68504AA4
:10351C001A643B69002B06D17B685B6D43F040025B
:10352C007B685A6508E03B69013B3B617B6893F81B
:10353C005130DBB2072BECD1FB683B617B681B681D
:10354C005B6803F00203002B2ED07B689B6C002B76
:10355C002AD07B689B6C00225A637B689B6C184654
:10356C00FDF7E7FA0346002B02D07B6840225A6530
:10357C007B681B685A687B681B6822F002025A60E1
:10358C003B69002B06D17B685B6D43F040027B6886
:10359C005A6509E03B69013B3B617B681B689B6892
:1035AC0003F00203002BEBD07B681B685B6803F015
:1035BC000103002B22D07B68DB6C002B1ED07B68B8
:1035CC00DB6C00225A637B68DB6C1846FDF7B1FAA2
:1035DC000346002B02D07B6840225A657B681B682F
:1035EC001A687B681B6822F040021A607B681B68B3
:1035FC005A687B681B6822F001025A607B680022C3
:10360C00DA877B680022DA867B685B6D402B02D1FF
:10361C000123FB7502E07B6800225A650023BB6026
:10362C007B681B68DB68BB607B681B689B68BB6046
:10363C00BB687B68012283F85120FB7D1846183744
:10364C00BD4680BD00000020F1197605813E0008C2
:10365C00FD3D000880B588B000AF78607B681B68C2
:10366C005B68FB617B681B689B68BB61BB699B09E2
:10367C0003F00103002B0FD1BB6903F00103002BF6
:10368C000AD0FB699B0903F00103002B04D07B6873
:10369C001B6C78689847BEE0BB695B0803F00103BC
:1036AC00002B0AD0FB69DB0903F00103002B04D0CB
:1036BC007B685B6C78689847ADE0BB695B0903F08D
:1036CC000103002B06D1BB699B0903F00103002BFE
:1036DC0000F0A180FB695B0903F00103002B00F0F3
:1036EC009A80BB699B0903F00103002B23D07B68F4
:1036FC0093F85130DBB2032B11D07B685B6D43F038
:10370C0004027B685A6500237B617B681B68DB685D
:10371C007B617B681B689B687B617B690BE000238A
:10372C003B617B681B68DB683B617B681B689B6843
:10373C003B613B696FE0BB695B0903F00103002B44
:10374C0014D07B685B6D43F001027B685A650023E3
:10375C00FB607B681B689B68FB607B681B681A6856
:10376C007B681B6822F040021A60FB687B685B6D0B
:10377C00002B4FD07B681B685A687B681B6822F053
:10378C00E0025A607B68012283F85120FB6903F048
:10379C000203002B04D1FB6903F00103002B34D08E
:1037AC007B681B685A687B681B6822F003025A60AE
:1037BC007B68DB6C002B11D07B68DB6C174A5A637F
:1037CC007B68DB6C1846FDF7EFF90346002B05D040
:1037DC007B685B6D43F040027B685A657B689B6C31
:1037EC00002B16D07B689B6C0C4A5A637B689B6CD5
:1037FC001846FDF7D9F90346002B0AD07B685B6DA0
:10380C0043F040027B685A6503E0786800F011F8D9
:10381C0000E000BF00BF2037BD4680BD6B380008FC
:10382C0080B483B000AF786000BF0C37BD4680BC5D
:10383C00704780B483B000AF786000BF0C37BD46D2
:10384C0080BC704780B483B000AF78607B6893F81D
:10385C005130DBB218460C37BD4680BC704780B582
:10386C0084B000AF78607B685B6AFB60FB68002209
:10387C00DA87FB680022DA86F868FFF7DAFF00BF08
:10388C001037BD4680BD80B582B000AF78607B68D4
:10389C001B6803F10C027B689B6B1278D2B21A7016
:1038AC007B689B6B5A1C7B689A637B68DB8F9BB233
:1038BC00013B9AB27B68DA877B68DB8F9BB2002B6B
:1038CC000FD17B681B685A687B681B6822F060020A
:1038DC005A607B68DB8E9BB2002B02D1786800F0BB
:1038EC00D3F900BF0837BD4680BD80B582B000AFAC
:1038FC0078607B681A6B7B681B680C3312781A70C3
:10390C007B681B6B5A1C7B681A637B68DB8E9BB2D3
:10391C00013B9AB27B68DA867B68DB8E9BB2002B0C
:10392C000FD17B681B685A687B681B6822F0800289
:10393C005A607B68DB8F9BB2002B02D1786800F059
:10394C00A3F900BF0837BD4680BD80B582B000AF7B
:10395C0078607B681B68DA687B689B6B92B21A8014
:10396C007B689B6B9A1C7B689A637B68DB8F9BB232
:10397C00013B9AB27B68DA877B68DB8F9BB2002BAA
:10398C000FD17B681B685A687B681B6822F0400269
:10399C005A607B68DB8E9BB2002B02D1786800F0FA
:1039AC0073F900BF0837BD4680BD80B582B000AF4B
:1039BC0078607B681B6B1A887B681B68DA607B6895
:1039CC001B6B9A1C7B681A637B68DB8E9BB2013B7A
:1039DC009AB27B68DA867B68DB8E9BB2002B0FD1A8
:1039EC007B681B685A687B681B6822F080025A60EF
:1039FC007B68DB8F9BB2002B02D1786800F044F916
:103A0C0000BF0837BD4680BD80B582B000AF78607E
:103A1C007B681B6803F10C027B689B6B1278D2B23B
:103A2C001A707B689B6B5A1C7B689A637B68DB8F74
:103A3C009BB2013B9AB27B68DA877B68DB8F9BB2C7
:103A4C00002B02D1786800F093F900BF0837BD460F
:103A5C0080BD80B582B000AF78607B681B68DA6887
:103A6C007B689B6B92B21A807B689B6B9A1C7B6801
:103A7C009A637B68DB8F9BB2013B9AB27B68DA87D7
:103A8C007B68DB8F9BB2002B02D1786800F070F959
:103A9C0000BF0837BD4680BD80B588B000AFF86068
:103AAC00B9603B601346FB71FCF72CFF0246BB6A06
:103ABC009B1A3A681344FB61FCF724FFB861394B3D
:103ACC001B685B011B0DFA6902FB03F37B6154E07D
:103ADC003B68B3F1FF3F50D0FCF714FF0246BB69C3
:103AEC00D31AFA699A4202D9FB69002B3DD1FB68C3
:103AFC001B685A68FB681B6822F0E0025A60FB687E
:103B0C005B68B3F5827F11D1FB689B68B3F5004FFE
:103B1C0004D0FB689B68B3F5806F07D1FB681B680A
:103B2C001A68FB681B6822F040021A60FB689B6AEB
:103B3C00B3F5005F0FD1FB681B681A68FB681B6844
:103B4C0022F400521A60FB681B681A68FB681B6839
:103B5C0042F400521A60FB68012283F85120FB6882
:103B6C00002283F85020032317E07B69002B01D13E
:103B7C000023FB617B69013B7B61FB681B689A68D6
:103B8C00BB681340BA689A420CBF01230023DBB216
:103B9C001A46FB799A429BD1002318462037BD4622
:103BAC0080BD00BF0000002080B586B002AFF86079
:103BBC00B9607A60FB685B68B3F5827F11D1FB68F2
:103BCC009B68B3F5004F04D0FB689B68B3F5806F1E
:103BDC0007D1FB681B681A68FB681B6822F040025F
:103BEC001A60FB685B68B3F5827F17D1FB689B6832
:103BFC00B3F5806F12D17B680093BB680022012162
:103C0C00F868FFF749FF0346002B1AD0FB685B6D81
:103C1C0043F02002FB685A65032313E07B68009392
:103C2C00BB6800228021F868FFF736FF0346002BA3
:103C3C0007D0FB685B6D43F02002FB685A650323D9
:103C4C0000E0002318461037BD4680BD80B586B015
:103C5C0002AFF860B9607A607B680093BB680022A1
:103C6C008021F868FFF718FF0346002B07D0FB688C
:103C7C005B6D43F02002FB685A65032300E00023D0
:103C8C0018461037BD4680BD80B586B000AF786051
:103C9C00354B1B68354AA2FB03235B0A642202FBEB
:103CAC0003F33B61FCF72EFE78617B681B685A6856
:103CBC007B681B6822F020025A603B69002B06D1FE
:103CCC007B685B6D43F020027B685A6509E03B69B9
:103CDC00013B3B617B681B689B6803F00203002B74
:103CEC00EBD07A6964217868FFF7B0FF0346002BAC
:103CFC0005D07B685B6D43F020027B685A657B685E
:103D0C009B68002B0AD10023FB607B681B68DB6877
:103D1C00FB607B681B689B68FB60FB687B685B6D6A
:103D2C00002B15D17B6893F85130DBB2042B07D1F3
:103D3C007B68012283F851207868FCF7F3FB0EE0D6
:103D4C007B68012283F851207868FFF769FD06E053
:103D5C007B68012283F851207868FFF76AFD00BF69
:103D6C001837BD4680BD00BF00000020F119760554
:103D7C0080B584B000AF78607B681B685A687B683C
:103D8C001B6822F060025A60FCF7BCFD03461A4621
:103D9C0064217868FFF708FF0346002B05D07B6889
:103DAC005B6D43F020027B685A657B689B68002B37
:103DBC000AD10023FB607B681B68DB68FB607B68B7
:103DCC001B689B68FB60FB687B68012283F85120B1
:103DDC007B685B6D002B03D17868FCF7A3FB02E0DA
:103DEC007868FFF726FD00BF1037BD4680BD000088
:103DFC0080B485B000AF78601C4B1B681C4AA2FBDA
:103E0C0003235B0A642202FB03F3FB60FB68002BB9
:103E1C0006D17B685B6D43F040027B685A6509E014
:103E2C00FB68013BFB607B681B689B6803F002032B
:103E3C00002BEBD07B681B681A687B681B6822F030
:103E4C0040021A607B681B685A687B681B6822F00A
:103E5C00E0025A607B681B68DB687B68072283F88A
:103E6C00512000BF1437BD4680BC704700000020B5
:103E7C00F119760580B483B000AF78607B681B685D
:103E8C005A687B681B6822F080025A607B681B684A
:103E9C001A687B681B6822F040021A607B68072254
:103EAC0083F8512000BF0C37BD4680BC704780B5ED
:103EBC0082B000AF78607B68002B01D101233FE01A
:103ECC007B6893F83930DBB2002B06D17B6800227B
:103EDC0083F838207868FCF7F1FB7B68242283F8A0
:103EEC0039207B681B68DA687B681B6822F40052F7
:103EFC00DA60786800F096FA7B681B681A697B6850
:103F0C001B6822F490421A617B681B685A697B68B3
:103F1C001B6822F02A025A617B681B68DA687B688E
:103F2C001B6842F40052DA607B680022DA637B681B
:103F3C00202283F839207B68202283F83A20002342
:103F4C0018460837BD4680BD80B485B000AFF86018
:103F5C00B9601346FB80FB6893F83930DBB2202B39
:103F6C0030D1BB68002B02D0FB88002B01D1012380
:103F7C0029E0FB6893F83830012B01D1022322E0B1
:103F8C00FB68012283F83820FB68BA681A62FB6868
:103F9C00FA889A84FB68FA88DA84FB680022DA6370
:103FAC00FB68212283F83920FB68002283F8382033
:103FBC00FB681B68DA68FB681B6842F08002DA60F9
:103FCC00002300E0022318461437BD4680BC70471E
:103FDC0080B588B000AF78607B681B681B68FB619C
:103FEC007B681B68DB68BB617B681B685B697B61FA
:103FFC0000233B610023FB60FB6903F00F033B6173
:10400C003B69002B0DD1FB6903F02003002B08D07A
:10401C00BB6903F02003002B03D0786800F082F911
:10402C00D0E03B69002B00F0B0807B6903F001030A
:10403C00002B05D1BB6903F49073002B00F0A58015
:10404C00FB6903F00103002B0AD0BB6903F48073F6
:10405C00002B05D07B68DB6B43F001027B68DA63D5
:10406C00FB6903F00403002B0AD07B6903F0010306
:10407C00002B05D07B68DB6B43F002027B68DA63B4
:10408C00FB6903F00203002B0AD07B6903F00103E8
:10409C00002B05D07B68DB6B43F004027B68DA6392
:1040AC00FB6903F00803002B0FD0BB6903F020035E
:1040BC00002B04D17B6903F00103002B05D07B6836
:1040CC00DB6B43F008027B68DA637B68DB6B002BED
:1040DC0077D0FB6903F02003002B07D0BB6903F0FA
:1040EC002003002B02D0786800F01CF97B681B6859
:1040FC005B6903F04003002B14BF01230023DBB2E8
:10410C00FB607B68DB6B03F00803002B02D1FB68C0
:10411C00002B31D0786800F06DF87B681B685B6908
:10412C0003F04003002B23D07B681B685A697B6823
:10413C001B6822F040025A617B685B6B002B13D02A
:10414C007B685B6B214A5A637B685B6B1846FCF798
:10415C002BFD0346002B16D07B685B6B5B6B7A6880
:10416C00526B104698470EE0786800F03AF80AE077
:10417C00786800F036F806E0786800F032F87B6872
:10418C000022DA631DE000BF1BE0FB6903F0800333
:10419C00002B08D0BB6903F08003002B03D0786898
:1041AC0000F059F80EE0FB6903F04003002B09D036
:1041BC00BB6903F04003002B04D0786800F09AF838
:1041CC0000E000BF2037BD4680BD00BF3B42000869
:1041DC0080B483B000AF786000BF0C37BD4680BCA4
:1041EC00704780B483B000AF786000BF0C37BD4619
:1041FC0080BC704780B483B000AF78607B681B686C
:10420C00DA687B681B6822F49072DA607B681B6842
:10421C005A697B681B6822F001025A617B68202274
:10422C0083F83A2000BF0C37BD4680BC704780B580
:10423C0084B000AF78607B685B6AFB60FB6800222F
:10424C00DA85FB680022DA84F868FFF7CAFF00BF42
:10425C001037BD4680BD80B485B000AF78607B68F8
:10426C0093F83930DBB2212B3ED17B689B68B3F5D8
:10427C00805F14D17B681B69002B10D17B681B6A93
:10428C00FB60FB681B881A467B681B68C2F308023C
:10429C005A607B681B6A9A1C7B681A6208E07B6810
:1042AC001B6A591C7A6811621A787B681B685A6001
:1042BC007B68DB8C9BB2013B9BB27A681946D1843C
:1042CC00002B0FD17B681B68DA687B681B6822F0B7
:1042DC008002DA607B681B68DA687B681B6842F0D6
:1042EC004002DA60002300E0022318461437BD4672
:1042FC0080BC704780B582B000AF78607B681B686B
:10430C00DA687B681B6822F04002DA607B68202246
:10431C0083F839207868FCF717F90023184608371A
:10432C00BD4680BD80B584B000AF78607B6893F8E3
:10433C003A30DBB2222B70D17B689B68B3F5805F7F
:10434C0017D17B681B69002B13D10023FB607B68A2
:10435C009B6ABB607B681B685B689BB2C3F30803FA
:10436C009AB2BB681A807B689B6A9A1C7B689A62BB
:10437C0026E07B689B6AFB600023BB607B689B68C4
:10438C00B3F5805F07D07B689B68002B0AD17B68F4
:10439C001B69002B06D17B681B685B68DAB2FB6873
:1043AC001A7008E07B681B685B68DBB203F07F0364
:1043BC00DAB2FB681A707B689B6A5A1C7B689A623B
:1043CC007B68DB8D9BB2013B9BB27A681946D18529
:1043DC00002B20D17B681B68DA687B681B6822F095
:1043EC002002DA607B681B68DA687B681B6822F441
:1043FC008072DA607B681B685A697B681B6822F0E4
:10440C0001025A617B68202283F83A207868FFF712
:10441C00DFFE002302E0002300E0022318461037E1
:10442C00BD4680BD80B584B000AF78607B681B68EA
:10443C001B6923F440517B68DA687B681B680A436C
:10444C001A617B689A687B681B691A437B685B6995
:10445C001343BB607B681B68DB6823F4B05323F009
:10446C000C037A681268B9680B43D3607B681B68CD
:10447C005B6923F440717B689A697B681B680A430B
:10448C005A617B681B682C4A934203D1FEF760FD8E
:10449C00F86002E0FEF748FDF860FA6813469B00EE
:1044AC0013449A001A447B685B689B00B2FBF3F3DD
:1044BC00224AA2FB03235B091901FA6813469B00ED
:1044CC0013449A001A447B685B689B00B2FBF3F2BE
:1044DC001A4BA3FB02035B09642000FB03F3D31A02
:1044EC001B013233154AA2FB03235B0903F0F003D3
:1044FC001944FA6813469B0013449A001A447B68CB
:10450C005B689B00B2FBF3F20C4BA3FB02035B0951
:10451C00642000FB03F3D31A1B013233074AA2FBBE
:10452C0003235B0903F00F027B681B680A449A6043
:10453C0000BF1037BD4680BD003801401F85EB51D0
:10454C0084B080B483B000AF786007F1140080E8C9
:10455C000E00002318460C37BD4680BC04B07047D3
:10456C0080B485B000AF78607B680022A3F844204B
:10457C004FF43F43FB60FB689AB27B68A3F8402082
:10458C00002318461437BD4680BC704780B485B0F4
:10459C0000AF78604FF43F43FB607B68B3F840306A
:1045AC009AB2FB689BB2DB439BB213409AB27B6816
:1045BC00A3F84020002318461437BD4680BC704732
:1045CC0080B483B000AF78600B46FB7000231846B4
:1045DC000C37BD4680BC704784B080B483B000AF4C
:1045EC00786007F1140080E80E007B680122A3F8C4
:1045FC0040207B680022A3F840207B680022A3F8AF
:10460C0044207B680022A3F85020002318460C3766
:10461C00BD4680BC04B0704780B49BB000AF7860DE
:10462C003960002387F867307A683B681B789B00F9
:10463C0013441B889BB223F4EC4323F07003A7F8BC
:10464C0064303B68DB78032B1FD801A252F823F0AF
:10465C006D460008894600089F4600087B46000806
:10466C00B7F8643043F40073A7F8643012E0B7F87D
:10467C00643043F4C063A7F864300BE0B7F86430DF
:10468C0043F48063A7F8643004E0012387F86730B3
:10469C0000E000BF7A683B681B789B001A44B7F8AF
:1046AC00643043F07F4343F47F0343F4004343F00F
:1046BC0080039BB213807A683B681B789B00134481
:1046CC001B889BB223F4E04323F070039AB23B683F
:1046DC001B789BB21343A7F85E307A683B681B7853
:1046EC009B001A44B7F85E3043F07F4343F47F03DA
:1046FC0043F4004343F080039BB213803B681B7B65
:10470C00002B40F049813B685B78002B00F08480E3
:10471C007B687B617B68B3F850309BB21A467B692F
:10472C0013447B613B681B781A017B69134403F5C6
:10473C0080633B613B68DB885B089BB25B009AB291
:10474C003B691A807A683B681B789B0013441B8872
:10475C00FB81FB8903F04003002B1BD07A683B687C
:10476C001B789B0013441B889BB223F4E04323F07B
:10477C007003BB817A683B681B789B001A44BB8929
:10478C0043F07F4343F47F0343F4004343F0C003FF
:10479C009BB213803B68DB78012B20D07A683B6896
:1047AC001B789B0013441B889BB223F4E04323F03B
:1047BC0040033B813B8983F020033B817A683B6853
:1047CC001B789B001A443B8943F07F4343F47F03DF
:1047DC0043F4004343F080039BB213807FE27A687A
:1047EC003B681B789B0013441B889BB223F4E0436B
:1047FC0023F040037B817A683B681B789B001A444A
:10480C007B8943F07F4343F47F0343F4004343F03D
:10481C0080039BB2138062E27B68FB627B68B3F817
:10482C0050309BB21A46FB6A1344FB623B681B7800
:10483C001A01FB6A134403F58163BB623B68DB8896
:10484C005B089BB25B009AB2BB6A1A807B687B6286
:10485C007B68B3F850309BB21A467B6A13447B6278
:10486C003B681B781A017B6A134403F20C433B62CE
:10487C003B681B69002B12D13B6A1B889BB223F44B
:10488C00F8439AB23B6A1A803B6A1B889BB26FEA68
:10489C0043436FEA53439AB23B6A1A802FE03B685A
:1048AC001B693E2B13D83B681B695B083B663B6856
:1048BC001B6903F00103002B02D03B6E01333B66F6
:1048CC003B6E9BB29B029AB23B6A1A8017E03B6824
:1048DC001B695B093B663B681B6903F01F03002BDC
:1048EC0002D13B6E013B3B663B6E9BB29B029BB283
:1048FC006FEA43436FEA53439AB23B6A1A807A6871
:10490C003B681B789B0013441B88FB83FB8B03F4D5
:10491C008043002B1BD07A683B681B789B001344A8
:10492C001B889BB223F4E04323F07003BB837A68AB
:10493C003B681B789B001A44BB8B43F07F4343F4CA
:10494C007F0343F4404343F080039BB213807A68A7
:10495C003B681B789B0013441B889BB223F4804359
:10496C0023F070037B837B8B83F480537B837B8B63
:10497C0083F400537B837A683B681B789B001A4452
:10498C007B8B43F07F4343F47F0343F4004343F0BA
:10499C0080039BB21380A2E17A683B681B789B0072
:1049AC0013441B889BB223F4E04323F07003A7F855
:1049BC005C307A683B681B789B001A44B7F85C3013
:1049CC0043F07F4343F47F0343F4014343F08003FC
:1049DC009BB213807B68BB657B68B3F850309BB28D
:1049EC001A46BB6D1344BB653B681B781A01BB6D43
:1049FC00134403F580637B653B681B895B089BB2A2
:104A0C005B009AB27B6D1A807B683B657B68B3F860
:104A1C0050309BB21A463B6D13443B653B681B7888
:104A2C001A013B6D134403F58163FB643B685B899E
:104A3C005B089BB25B009AB2FB6C1A803B685B789C
:104A4C00002B40F091807A683B681B789B001344E4
:104A5C001B88BB87BB8F03F48043002B1BD07A6869
:104A6C003B681B789B0013441B889BB223F4E043E8
:104A7C0023F070037B877A683B681B789B001A4491
:104A8C007B8F43F07F4343F47F0343F4404343F075
:104A9C0080039BB213807A683B681B789B0013449D
:104AAC001B883B873B8F03F04003002B1BD07A689D
:104ABC003B681B789B0013441B889BB223F4E04398
:104ACC0023F07003FB867A683B681B789B001A44C2
:104ADC00FB8E43F07F4343F47F0343F4004343F0E6
:104AEC00C0039BB213807A683B681B789B0013440D
:104AFC001B889BB223F4804323F07003BB86BB8ED0
:104B0C0083F48053BB86BB8E83F40053BB867A68D8
:104B1C003B681B789B001A44BB8E43F07F4343F4E5
:104B2C007F0343F4004343F080039BB213807A6805
:104B3C003B681B789B0013441B889BB223F4E04317
:104B4C0023F040037B867A683B681B789B001A44F1
:104B5C007B8E43F07F4343F47F0343F4004343F0E5
:104B6C0080039BB21380BAE07A683B681B789B0089
:104B7C0013441B88A7F84A30B7F84A3003F4804333
:104B8C00002B1DD07A683B681B789B0013441B8854
:104B9C009BB223F4E04323F07003A7F848307A6803
:104BAC003B681B789B001A44B7F8483043F07F43AE
:104BBC0043F47F0343F4404343F080039BB21380E0
:104BCC007A683B681B789B0013441B88A7F8463017
:104BDC00B7F8463003F04003002B1DD07A683B68D1
:104BEC001B789B0013441B889BB223F4E04323F0F7
:104BFC007003A7F844307A683B681B789B001A4412
:104C0C00B7F8443043F07F4343F47F0343F400434D
:104C1C0043F0C0039BB213803B68DB78012B24D09C
:104C2C007A683B681B789B0013441B889BB223F467
:104C3C00E04323F04003A7F84030B7F8403083F04E
:104C4C002003A7F840307A683B681B789B001A4415
:104C5C00B7F8403043F07F4343F47F0343F4004301
:104C6C0043F080039BB213801DE07A683B681B788D
:104C7C009B0013441B889BB223F4E04323F04003B6
:104C8C00A7F842307A683B681B789B001A44B7F847
:104C9C00423043F07F4343F47F0343F4004343F03B
:104CAC0080039BB213807A683B681B789B0013448B
:104CBC001B889BB223F4804323F07003FB877A6834
:104CCC003B681B789B001A44FB8F43F07F4343F4F3
:104CDC007F0343F4004343F080039BB2138097F8A7
:104CEC00673018466C37BD4680BC704780B48DB0B9
:104CFC0000AF786039603B681B7B002B40F08E80E6
:104D0C003B685B78002B44D07A683B681B789B002F
:104D1C0013441B88BB81BB8903F04003002B1BD0C1
:104D2C007A683B681B789B0013441B889BB223F466
:104D3C00E04323F070037B817A683B681B789B000F
:104D4C001A447B8943F07F4343F47F0343F40043CD
:104D5C0043F0C0039BB213807A683B681B789B00BE
:104D6C0013441B889BB223F4E04323F040033B81A4
:104D7C007A683B681B789B001A443B8943F07F435D
:104D8C0043F47F0343F4004343F080039BB213804E
:104D9C0092E17A683B681B789B0013441B887B82EA
:104DAC007B8A03F48043002B1BD07A683B681B780A
:104DBC009B0013441B889BB223F4E04323F0700345
:104DCC003B827A683B681B789B001A443B8A43F011
:104DDC007F4343F47F0343F4404343F080039BB28F
:104DEC0013807A683B681B789B0013441B889BB22A
:104DFC0023F4804323F07003FB817A683B681B78B3
:104E0C009B001A44FB8943F07F4343F47F0343F434
:104E1C00004343F080039BB213804DE13B685B7809
:104E2C00002B40F0A5807A683B681B789B001344EC
:104E3C001B883B843B8C03F48043002B1BD07A688B
:104E4C003B681B789B0013441B889BB223F4E04304
:104E5C0023F07003FB837A683B681B789B001A4431
:104E6C00FB8B43F07F4343F47F0343F4404343F015
:104E7C0080039BB213807A683B681B789B001344B9
:104E8C001B88BB83BB8B03F04003002B1BD07A68C1
:104E9C003B681B789B0013441B889BB223F4E043B4
:104EAC0023F070037B837A683B681B789B001A4461
:104EBC007B8B43F07F4343F47F0343F4004343F085
:104ECC00C0039BB213807A683B681B789B00134429
:104EDC001B889BB223F4E04323F070033B837A6876
:104EEC003B681B789B001A443B8B43F07F4343F495
:104EFC007F0343F4004343F0C0039BB213807A68F2
:104F0C003B681B789B0013441B889BB223F48043A3
:104F1C0023F07003FB827A683B681B789B001A4471
:104F2C00FB8A43F07F4343F47F0343F4004343F095
:104F3C0080039BB213807A683B681B789B001344F8
:104F4C001B889BB223F4E04323F04003BB827A68B6
:104F5C003B681B789B001A44BB8A43F07F4343F4A5
:104F6C007F0343F4004343F080039BB21380A3E020
:104F7C007A683B681B789B0013441B88FB85FB8D70
:104F8C0003F48043002B1BD07A683B681B789B0092
:104F9C0013441B889BB223F4E04323F07003BB85BE
:104FAC007A683B681B789B001A44BB8D43F07F43A7
:104FBC0043F47F0343F4404343F080039BB21380DC
:104FCC007A683B681B789B0013441B887B857B8D20
:104FDC0003F04003002B1BD07A683B681B789B00C6
:104FEC0013441B889BB223F4E04323F070033B85EE
:104FFC007A683B681B789B001A443B8D43F07F43D7
:10500C0043F47F0343F4004343F0C0039BB213808B
:10501C007A683B681B789B0013441B889BB223F473
:10502C00E04323F07003FB847A683B681B789B0099
:10503C001A44FB8C43F07F4343F47F0343F4404317
:10504C0043F080039BB213807A683B681B789B000B
:10505C0013441B889BB223F4E04323F04003BB842E
:10506C007A683B681B789B001A44BB8C43F07F43E7
:10507C0043F47F0343F4004343F080039BB213805B
:10508C007A683B681B789B0013441B889BB223F403
:10509C00804323F070037B847A683B681B789B0009
:1050AC001A447B8C43F07F4343F47F0343F4004367
:1050BC0043F080039BB21380002318463437BD465F
:1050CC0080BC704780B5C4B000AF3B1D18603B4638
:1050DC0019603B461B685B78012B40F057853B46BB
:1050EC001B689A693B461B681B699A4205D93B466B
:1050FC001B681B69C7F80C3104E03B461B689B69B5
:10510C00C7F80C313B461B681B7B002B2CD13B4654
:10511C001B6859693B461B68DA88D7F80C319BB27F
:10512C00381D006801F02CFA3B1D1B687B613B1D90
:10513C001B68B3F850309BB21A467B6913447B61F1
:10514C003B461B681B781A017B69134403F204422B
:10515C0007F110031A60D7F80C319AB207F110035B
:10516C001B681A8000F0DDBC3B461B68DB78022B09
:10517C0040F047833B461B681A6A3B461B681B6919
:10518C009A4240F2EB823B1D1A683B461B681B7827
:10519C009B0013441B889BB223F4E04323F0700361
:1051AC00A7F85A303B1D1A683B461B681B789B00BE
:1051BC001A44B7F85A3043F07F4343F47F0343F467
:1051CC00014343F080039BB213803B461B681A6A71
:1051DC00D7F80C31D21A3B461B681A623B1D1A6871
:1051EC003B461B681B789B0013441B889BB203F047
:1051FC004003002B00F059813B1D1B687B633B4631
:10520C001B685B78002B64D13B1D1B68FB623B1D4C
:10521C001B68B3F850309BB21A46FB6A1344FB620E
:10522C003B461B681B781A01FB6A134403F20C43C0
:10523C00BB62D7F80C31002B12D1BB6A1B889BB216
:10524C0023F4F8439AB2BB6A1A80BB6A1B889BB2E0
:10525C006FEA43436FEA53439AB2BB6A1A8054E035
:10526C00D7F80C313E2B17D8D7F80C315B08C7F8A0
:10527C000431D7F80C3103F00103002B04D0D7F81C
:10528C0004310133C7F80431D7F804319BB29B02C7
:10529C009AB2BB6A1A8038E0D7F80C315B09C7F8B0
:1052AC000431D7F80C3103F01F03002B04D1D7F8CD
:1052BC000431013BC7F80431D7F804319BB29B028F
:1052CC009BB26FEA43436FEA53439AB2BB6A1A80AC
:1052DC001BE03B461B685B78012B16D13B1D1B6802
:1052EC00B3F850309BB21A467B6B13447B633B463E
:1052FC001B681B781A017B6B134403F20C433B6352
:10530C00D7F80C319AB23B6B1A803B461B685B8911
:10531C00A7F80A313B461B685969D7F80C319BB288
:10532C00B7F80A21381D006801F02AF93B461B68C2
:10533C005A69D7F80C311A443B461B685A613B46F4
:10534C001B681A6A3B461B681B699A4209D93B4683
:10535C001B681A6AD7F80C31D21A3B461B681A62C2
:10536C0008E03B461B681B6AC7F80C313B461B68C0
:10537C0000221A623B461B685B78002B64D13B1DF4
:10538C001B68FB613B1D1B68B3F850309BB21A467F
:10539C00FB691344FB613B461B681B781A01FB69D4
:1053AC00134403F20443BB61D7F80C31002B12D128
:1053BC00BB691B889BB223F4F8439AB2BB691A8071
:1053CC00BB691B889BB26FEA43436FEA53439AB2A3
:1053DC00BB691A8057E0D7F80C313E2B17D8D7F899
:1053EC000C315B08C7F80031D7F80C3103F001031E
:1053FC00002B04D0D7F800310133C7F80031D7F8AF
:10540C0000319BB29B029AB2BB691A803BE0D7F881
:10541C000C315B09C7F80031D7F80C3103F01F03CE
:10542C00002B04D1D7F80031013BC7F80031D7F875
:10543C0000319BB29B029BB26FEA43436FEA53432A
:10544C009AB2BB691A801EE03B461B685B78012B45
:10545C0019D13B1D1B687B623B1D1B68B3F8503098
:10546C009BB21A467B6A13447B623B461B681B78D3
:10547C001A017B6A134403F204433B62D7F80C31E4
:10548C009AB23B6A1A803B461B681B89A7F80A3103
:10549C003B461B685969D7F80C319BB2B7F80A2107
:1054AC00381D006801F06CF83BE33B461B685B78E9
:1054BC00002B64D13B1D1B68FB643B1D1B68B3F8C0
:1054CC0050309BB21A46FB6C1344FB643B461B6882
:1054DC001B781A01FB6C134403F20443BB64D7F82A
:1054EC000C31002B12D1BB6C1B889BB223F4F843FC
:1054FC009AB2BB6C1A80BB6C1B889BB26FEA43439D
:10550C006FEA53439AB2BB6C1A8057E0D7F80C3150
:10551C003E2B17D8D7F80C315B08C7F8FC30D7F8FE
:10552C000C3103F00103002B04D0D7F8FC3001330D
:10553C00C7F8FC30D7F8FC309BB29B029AB2BB6C1C
:10554C001A803BE0D7F80C315B09C7F8FC30D7F870
:10555C000C3103F01F03002B04D1D7F8FC30013BB6
:10556C00C7F8FC30D7F8FC309BB29B029BB26FEAB9
:10557C0043436FEA53439AB2BB6C1A801EE03B461E
:10558C001B685B78012B19D13B1D1B687B653B1D90
:10559C001B68B3F850309BB21A467B6D13447B6585
:1055AC003B461B681B781A017B6D134403F20443C2
:1055BC003B65D7F80C319AB23B6D1A803B461B68A1
:1055CC001B89A7F80A313B461B685969D7F80C317F
:1055DC009BB2B7F80A21381D006800F0D1FF3B469A
:1055EC001B685A69D7F80C311A443B461B685A6140
:1055FC003B461B681A6A3B461B681B699A4209D9D1
:10560C003B461B681A6AD7F80C31D21A3B461B680A
:10561C001A6208E03B461B681B6AC7F80C313B4614
:10562C001B6800221A623B1D1B687B643B461B688F
:10563C005B78002B64D13B1D1B68FB633B1D1B6817
:10564C00B3F850309BB21A46FB6B1344FB633B46DA
:10565C001B681B781A01FB6B134403F20C43BB63EE
:10566C00D7F80C31002B12D1BB6B1B889BB223F4E7
:10567C00F8439AB2BB6B1A80BB6B1B889BB26FEA68
:10568C0043436FEA53439AB2BB6B1A8054E0D7F88A
:10569C000C313E2B17D8D7F80C315B08C7F8F83013
:1056AC00D7F80C3103F00103002B04D0D7F8F830F5
:1056BC000133C7F8F830D7F8F8309BB29B029AB296
:1056CC00BB6B1A8038E0D7F80C315B09C7F8F8309F
:1056DC00D7F80C3103F01F03002B04D1D7F8F830A6
:1056EC00013BC7F8F830D7F8F8309BB29B029BB25D
:1056FC006FEA43436FEA53439AB2BB6B1A801BE0C9
:10570C003B461B685B78012B16D13B1D1B68B3F81D
:10571C0050309BB21A467B6C13447B643B461B682F
:10572C001B781A017B6C134403F20C433B64D7F8CF
:10573C000C319AB23B6C1A803B461B685B89A7F80C
:10574C000A313B461B685969D7F80C319BB2B7F844
:10575C000A21381D006800F013FFE2E13B461B688C
:10576C001B6AC7F80C313B1D1A683B461B681B783B
:10577C009B0013441B889BB223F4E24323F0700379
:10578C00A7F866303B1D1A683B461B681B789B00CC
:10579C001A44B7F8663043F07F4343F47F0343F475
:1057AC00004343F080039BB213803B1D1B683B6698
:1057BC003B1D1B68B3F850309BB21A463B6E13442A
:1057CC003B663B461B681B781A013B6E134403F285
:1057DC000443FB65D7F80C319AB2FB6D1A803B463B
:1057EC001B681B89A7F80A313B461B685969D7F817
:1057FC000C319BB2B7F80A21381D006800F0C0FECE
:10580C008FE13B1D1A683B461B681B789B001344B9
:10581C001B889BB203F04003002B00F08F803B1DD4
:10582C001B68BB673B461B685B78002B64D13B1D38
:10583C001B683B673B1D1B68B3F850309BB21A4684
:10584C003B6F13443B673B461B681B781A013B6F4D
:10585C00134403F20C43FB66D7F80C31002B12D126
:10586C00FB6E1B889BB223F4F8439AB2FB6E1A8032
:10587C00FB6E1B889BB26FEA43436FEA53439AB2A9
:10588C00FB6E1A8054E0D7F80C313E2B17D8D7F8A2
:10589C000C315B08C7F8F430D7F80C3103F0010376
:1058AC00002B04D0D7F8F4300133C7F8F430D7F814
:1058BC00F4309BB29B029AB2FB6E1A8038E0D7F898
:1058CC000C315B09C7F8F430D7F80C3103F01F0327
:1058DC00002B04D1D7F8F430013BC7F8F430D7F8DB
:1058EC00F4309BB29B029BB26FEA43436FEA534383
:1058FC009AB2FB6E1A801BE03B461B685B78012B4F
:10590C0016D13B1D1B68B3F850309BB21A46BB6FC7
:10591C001344BB673B461B681B781A01BB6F1344CF
:10592C0003F20C437B67D7F80C319AB27B6F1A8069
:10593C003B461B685B89A7F80A3197E03B461B681E
:10594C005B78002B68D13B1D1B68C7F880303B1D72
:10595C001B68B3F850309BB21A46D7F8803013440A
:10596C00C7F880303B461B681B781A01D7F880308B
:10597C00134403F20443FB67D7F80C31002B12D10C
:10598C00FB6F1B889BB223F4F8439AB2FB6F1A800F
:10599C00FB6F1B889BB26FEA43436FEA53439AB287
:1059AC00FB6F1A805DE0D7F80C313E2B17D8D7F877
:1059BC000C315B08C7F8F030D7F80C3103F0010359
:1059CC00002B04D0D7F8F0300133C7F8F030D7F8FB
:1059DC00F0309BB29B029AB2FB6F1A8041E0D7F871
:1059EC000C315B09C7F8F030D7F80C3103F01F030A
:1059FC00002B04D1D7F8F030013BC7F8F030D7F8C2
:105A0C00F0309BB29B029BB26FEA43436FEA534365
:105A1C009AB2FB6F1A8024E03B461B685B78012B23
:105A2C001FD13B1D1B68C7F888303B1D1B68B3F8A2
:105A3C0050309BB21A46D7F888301344C7F88830D8
:105A4C003B461B681B781A01D7F88830134403F2C5
:105A5C000443C7F88430D7F80C319AB2D7F88430A5
:105A6C001A803B461B681B89A7F80A313B461B680A
:105A7C005969D7F80C319BB2B7F80A21381D006868
:105A8C0000F07EFD3B461B685B78002B22D13B1D52
:105A9C001A683B461B681B789B0013441B889BB2FF
:105AAC0023F4E04323F07003A7F868303B1D1A6819
:105ABC003B461B681B789B001A44B7F8683043F0D0
:105ACC007F4343F47F0343F4004343F0C0039BB292
